:020000040800F2
:1000000000500020E102000829030008290300082D
:100010002903000829030008290300080000000044
:10002000000000000000000000000000290300089C
:100030002903000800000000290300082903000824
:1000400029030008290300082903000829030008E0
:1000500029030008290300082903000829030008D0
:1000600029030008290300082903000829030008C0
:1000700029030008290300082903000829030008B0
:1000800029030008290300082903000829030008A0
:100090002903000829030008290300082903000890
:1000A0002903000829030008290300082903000880
:1000B0002903000829030008290300082903000870
:1000C0002903000829030008290300082903000860
:1000D0002903000829030008290300082903000850
:1000E0002903000829030008290300080000000074
:1000F0000000000000000000000000000000000000
:0C01000000000000000000005FF808F1A3
:10010C000348044B834202D0034B03B1184770479A
:10011C00300400203004002000000000054806498F
:10012C000B1AD90F01EBA301491002D0034B03B1F9
:10013C0018477047300400203004002000000000F5
:10014C0010B5064C237843B9FFF7DAFF044B13B113
:10015C000448AFF300800123237010BD300400204D
:10016C00000000004003000808B5044B1BB1044913
:10017C000448AFF30080BDE80840CFE70000000062
:10018C003404002040030008002301461A46184698
:10019C0000F03AB838B5084B084D5B1B9C1007D0E3
:1001AC00043B1D44013C55F804399847002CF9D107
:1001BC00BDE8384000F0C4B87803000874030008A8
:1001CC0070B50D4E0D4D761BB61006D0002455F8AB
:1001DC00043B01349847A642F9D1094E094D00F071
:1001EC00A9F8761BB61006D0002455F8043B013450
:1001FC009847A642F9D170BD6C0300086C03000847
:10020C00740300086C03000870B5174C2568D5F80A
:10021C004841DCB165681F2D23DC80B14FF0010C27
:10022C0004EB850ECEF88820D4F888610CFA05F220
:10023C0016430228C4F88861CEF808310BD06B1C29
:10024C0002356360002044F8251070BD05F5A674D6
:10025C00C5F84841DEE7D4F88C311343C4F88C312F
:10026C00EDE74FF0FF3070BD6803000800B585B0B6
:10027C00164B0FCB0DF1100C0CE90F004FF0000CCE
:10028C001EE01346CCF107029A4217DD04AA02EBDA
:10029C00430232F8101C5A1C04A800EB420030F840
:1002AC00100C8142EDD90DF1100E0EEB430323F827
:1002BC00100C0EEB420323F8101CE2E70CF1010CBE
:1002CC00BCF1060FDADC0023DCE700BF58030008A2
:1002DC0070470000002103E00B4B5B584350043186
:1002EC000A480B4B42189A42F6D30A4A02E0002302
:1002FC0042F8043B084B9A42F9D3FFF7E9FFFFF7AA
:10030C005FFFFFF7B3FF7047780300080000002081
:10031C0030040020300400204C040020FEE70000D4
:10032C00024B13B10248FFF72FBF704700000000CB
:10033C00A1010008F8B500BFF8BC08BC9E46704788
:0C034C00F8B500BFF8BC08BC9E46704726
:100358000700050004000100000003000600020079
:040368000800002069
:08036C002D03000875010008D3
:040374004D0100082F
:10037800080000200000000000000000F402002037
:100388005C030020C40300200000000000000000FF
:100398000000000000000000000000000000000055
:1003A8000000000000000000000000000000000045
:1003B8000000000000000000000000000000000035
:1003C8000000000000000000000000000000000025
:1003D8000000000000000000000000000000000015
:1003E8000000000000000000000000000000000005
:1003F80000000000000000000000000000000000F5
:1004080000000000000000000000000000000000E4
:1004180000000000000000000000000000000000D4
:1004280001000000000000000E33CDAB34126DE671
:10043800ECDE05000B0000000000000000000000DA
:1004480000000000000000000000000000000000A4
:100458000000000000000000000000000000000094
:100468000000000000000000000000000000000084
:100478000000000000000000000000000000000074
:04000005080002E10C
:00000001FF
