:020000040800F2
:100000000050002091020008D9020008D90200081F
:10001000D9020008D9020008D90200080000000037
:10002000000000000000000000000000D9020008ED
:10003000D902000800000000D9020008D902000817
:10004000D9020008D9020008D9020008D902000824
:10005000D9020008D9020008D9020008D902000814
:10006000D9020008D9020008D9020008D902000804
:10007000D9020008D9020008D9020008D9020008F4
:10008000D9020008D9020008D9020008D9020008E4
:10009000D9020008D9020008D9020008D9020008D4
:1000A000D9020008D9020008D9020008D9020008C4
:1000B000D9020008D9020008D9020008D9020008B4
:1000C000D9020008D9020008D9020008D9020008A4
:1000D000D9020008D9020008D9020008D902000894
:1000E000D9020008D9020008D90200080000000067
:1000F0000000000000000000000000000000000000
:0C01000000000000000000005FF808F1A3
:10010C000348044B834202D0034B03B1184770479A
:10011C00300400203004002000000000054806498F
:10012C000B1AD90F01EBA301491002D0034B03B1F9
:10013C0018477047300400203004002000000000F5
:10014C0010B5064C237843B9FFF7DAFF044B13B113
:10015C000448AFF300800123237010BD300400204D
:10016C00000000003003000808B5044B1BB1044923
:10017C000448AFF30080BDE80840CFE70000000062
:10018C003404002030030008002301461A461846A8
:10019C0000F03AB838B5084B084D5B1B9C1007D0E3
:1001AC00043B1D44013C55F804399847002CF9D107
:1001BC00BDE8384000F0BCB85803000854030008F0
:1001CC0070B50D4E0D4D761BB61006D0002455F8AB
:1001DC00043B01349847A642F9D1094E094D00F071
:1001EC00A1F8761BB61006D0002455F8043B013458
:1001FC009847A642F9D170BD4C0300084C03000887
:10020C00540300084C03000870B5174C2568D5F84A
:10021C004841DCB165681F2D23DC80B14FF0010C27
:10022C0004EB850ECEF88820D4F888610CFA05F220
:10023C0016430228C4F88861CEF808310BD06B1C29
:10024C0002356360002044F8251070BD05F5A674D6
:10025C00C5F84841DEE7D4F88C311343C4F88C312F
:10026C00EDE74FF0FF3070BD4803000808B50020E3
:10027C0000F02FF84FF6FF7000F02EF8002008BDAC
:10028C0070470000002103E00B4B5B5843500431D6
:10029C000A480B4B42189A42F6D30A4A02E0002352
:1002AC0042F8043B084B9A42F9D3FFF7E9FFFFF7FA
:1002BC0087FFFFF7DBFF70475803000800000020A2
:1002CC0030040020300400205C040020FEE70020F5
:1002DC00704700207047000038B505464FF6FF7395
:1002EC00984201D0002402E00525FBE70134A54229
:1002FC000ADDFFF7ECFF0328F8D8044B53F8203045
:10030C00002BF3D09847F1E738BD00BF4C04002018
:10031C00024B13B10248FFF737BF704700000000D3
:10032C00A1010008F8B500BFF8BC08BC9E46704798
:0C033C00F8B500BFF8BC08BC9E46704736
:040348000800002089
:08034C001D0300087501000803
:040354004D0100084F
:10035800080000200000000000000000F402002057
:100368005C030020C403002000000000000000001F
:100378000000000000000000000000000000000075
:100388000000000000000000000000000000000065
:100398000000000000000000000000000000000055
:1003A8000000000000000000000000000000000045
:1003B8000000000000000000000000000000000035
:1003C8000000000000000000000000000000000025
:1003D8000000000000000000000000000000000015
:1003E8000000000000000000000000000000000005
:1003F80000000000000000000000000000000000F5
:1004080001000000000000000E33CDAB34126DE691
:10041800ECDE05000B0000000000000000000000FA
:1004280000000000000000000000000000000000C4
:1004380000000000000000000000000000000000B4
:1004480000000000000000000000000000000000A4
:100458000000000000000000000000000000000094
:04000005080002915C
:00000001FF
