:020000040800F2
:10000000FFFF002055040008A5040008A50400080F
:10001000A5040008A5040008A504000800000000CD
:10002000000000000000000000000000A50400081F
:10003000A504000800000000A5040008A5040008AD
:10004000A5040008A5040008A5040008A5040008EC
:10005000A5040008A5040008A5040008A5040008DC
:10006000A5040008A5040008A5040008A5040008CC
:10007000A5040008A5040008A5040008A5040008BC
:10008000A5040008A5040008A5040008A5040008AC
:10009000A5040008A5040008A5040008A50400089C
:1000A000A5040008A5040008A5040008A50400088C
:1000B000A5040008A5040008A5040008A50400087C
:1000C000A5040008A5040008A5040008A50400086C
:1000D000A5040008A5040008A5040008A50400085C
:1000E000A5040008A5040008A5040008A50400084C
:1000F000A5040008A5040008A5040008A50400083C
:10010000000000000000000000000000A50400083E
:10011000A5040008A5040008A5040008A50400081B
:10012000A5040008A5040008A5040008A50400080B
:10013000A5040008A504000800000000000000005D
:10014000A5040008A5040008A5040008000000009C
:10015000000000000000000000000000000000009F
:100160000000000000000000A5040008A50400082D
:10017000A5040008000000000000000000000000CE
:0801800000000000A5040008C6
:100188000348044B834202D0034B03B1184770471E
:10019800340400203404002000000000054806490B
:1001A8000B1AD90F01EBA301491002D0034B03B17D
:1001B8001847704734040020340400200000000071
:1001C80010B5064C237843B9FFF7DAFF044B13B197
:1001D8000448AFF300800123237010BD34040020CD
:1001E80000000000BC04000808B5044B1BB104491A
:1001F8000448AFF30080BDE80840CFE700000000E6
:1002080038040020BC040008002301461A4618469A
:1002180000F03AB838B5084B084D5B1B9C1007D066
:10022800043B1D44013C55F804399847002CF9D18A
:10023800BDE8384000F044B904050008000500088E
:1002480070B50D4E0D4D761BB61006D0002455F82E
:10025800043B01349847A642F9D1094E094D761B53
:1002680000F028F9B61006D0002455F8043B0134F4
:100278009847A642F9D170BDF8040008F8040008B0
:1002880000050008F804000870B4184C2568D5F873
:1002980048411CB365681F2D25DC38B9AB1C0135F6
:1002A800656044F82310002070BC704704EB850C8F
:1002B8000228CCF88820D4F888614FF0010202FAAD
:1002C80005F246EA0206C4F88861CCF80831E5D19F
:1002D800D4F88C311343C4F88C31DFE705F5A674E4
:1002E800C5F84841D6E74FF0FF30DDE7F4040008D1
:1002F800044B5A6942F4F0125A61DA6942F48012E6
:10030800DA61704700100240114A136823F0407305
:100318001360136843F0007313600E4B196821F0E3
:1003280030011960196841F020011960516A21F4FF
:1003380070215162516A41F4A02151621A6A22F473
:1003480070621A621A6A42F4A0621A62704700BFA9
:1003580000080048000C004808B5FFF7C9FFFFF780
:10036800D3FF08BD036823F0010303600023036083
:100378004360836001EB5201B1FBF2F1C160036895
:1003880043F00C030360036843F001030360704704
:100398004FF0000C08E0C36913F0800FFBD011F890
:1003A8000C3003850CF1010C9445F4D3C36913F0A8
:1003B800400FFBD07047000008B572B6FFF7CCFFBE
:1003C8004FF4E132044B19680448FFF7CBFF00F003
:1003D80038F800B162B608BD300400200050004073
:1003E80000B589B0FFF7E8FFF0B1114BEC460FCB31
:1003F800ACE80700ACF800300023CDF80E30CDF89B
:100408001230CDF81630CDF81A30ADF81E3004E0B1
:1004180000BF0133074A9342FAD3202269460648AF
:10042800FFF7B6FF0023F5E7012009B05DF804FBEC
:10043800D404000800127A000050004070470120E0
:10044800704708B5FFF7FBFF08BD0000DFF834D0A0
:10045800FFF7F4FF0C480D490D4A002302E0D45879
:10046800C4500433C4188C42F9D30A4A0A4C0023F6
:1004780001E013600432A242FBD3FFF7E1FEFFF76D
:10048800AFFFFEE7FFFF002000000020340400203B
:10049800040500083404002050040020FEE7000092
:1004A800024B13B10248FFF7AFBE704700000000CF
:1004B8001D020008F8B500BFF8BC08BC9E4670478E
:0C04C800F8B500BFF8BC08BC9E467047A9
:1004D40048656C6C6F20776F726C64210A000000B1
:1004E4000000000000000000000000000000000008
:0404F40008000020DC
:0804F800A9040008F10100084D
:04050000C901000825
:10050400080000200000000000000000F4020020A9
:100514005C030020C4030020000000000000000071
:1005240000000000000000000000000000000000C7
:1005340000000000000000000000000000000000B7
:1005440000000000000000000000000000000000A7
:100554000000000000000000000000000000000097
:100564000000000000000000000000000000000087
:100574000000000000000000000000000000000077
:100584000000000000000000000000000000000067
:100594000000000000000000000000000000000057
:1005A4000000000000000000000000000000000047
:1005B40001000000000000000E33CDAB34126DE6E4
:1005C400ECDE05000B00000000000000000000004D
:1005D4000000000000000000000000000000000017
:1005E4000000000000000000000000000000000007
:1005F40000000000000000000000000000000000F7
:1006040000000000000000000000000000000000E6
:0409340000127A0033
:040000050800045596
:00000001FF
