:020000040800F2
:10000000FFFF002079050008C9050008C9050008A0
:10001000C9050008C9050008C9050008000000005E
:10002000000000000000000000000000C9050008FA
:10003000C905000800000000C9050008C90500083E
:10004000C9050008C9050008C9050008C905000858
:10005000C9050008C9050008C9050008C905000848
:10006000C9050008C9050008C9050008C905000838
:10007000C9050008C9050008C9050008C905000828
:10008000C9050008C9050008C9050008C905000818
:10009000C9050008C9050008C9050008C905000808
:1000A000C9050008C9050008C9050008C9050008F8
:1000B000C9050008C9050008C9050008C9050008E8
:1000C000C9050008C9050008C9050008C9050008D8
:1000D000C9050008C9050008C9050008C9050008C8
:1000E000C9050008C9050008C9050008C9050008B8
:1000F000C9050008C9050008C9050008C9050008A8
:10010000000000000000000000000000C905000819
:10011000C9050008C9050008C9050008C905000887
:10012000C9050008C9050008C9050008C905000877
:10013000C9050008C9050008000000000000000013
:10014000C9050008C9050008C9050008000000002D
:10015000000000000000000000000000000000009F
:100160000000000000000000C9050008C9050008E3
:10017000C9050008000000000000000000000000A9
:0801800000000000C9050008A1
:100188000348044B834202D0034B03B1184770471E
:100198000400002004000020000000000548064B71
:1001A8001B1AD90F01EBA301491002D0034B03B16D
:1001B80018477047040000200400002000000000D9
:1001C80010B5064C237843B9FFF7DAFF044B13B197
:1001D8000448AFF300800123237010BD0400002001
:1001E80000000000E005000808B5044B1BB10449F5
:1001F8000448AFF30080BDE80840CFE700000000E6
:1002080008000020E0050008830730B547D0541ED9
:10021800002A3ED0CAB2034601E0013C39D303F8B4
:10022800012B9D07F9D1032C2CD9CDB205EB05255F
:100238000F2C05EB054535D9A4F1100222F00F0C5F
:1002480003F1100EE6444FEA121C1A46C2E90055A3
:10025800C2E9025510327245F8D10CF1010214F0CE
:100268000C0F03EB021204F00F0C13D0ACF10403D3
:1002780023F003030433134442F8045B9342FBD195
:100288000CF003042CB1C9B21C4403F8011BA342AF
:10029800FBD130BD64461346002CF4D1F9E7034680
:1002A8001446C0E71A46A446E0E700BF70B50F4BF6
:1002B8000F4DAB42A3EB050607D0B610002455F846
:1002C800043B01349847A642F9D800F085F9094D56
:1002D800094B5E1BAB424FEAA60606D0002455F830
:1002E800043B01349847A642F9D870BDFC050008C4
:1002F800FC050008FC050008040600080023014668
:100308001A46184600F014B838B5074D074C2C1B90
:10031800A41005D0013C55F8043D9847002CF9D1AC
:10032800BDE8384000F05EB9080600080406000879
:1003380070B4164D2C681CB365681F2D23DC38B9C2
:10034800AB1C0135656044F82310002070BC704771
:1003580004EB850C0228CCF88820D4F888614FF08B
:10036800010202FA05F246EA0206C4F88861CCF8EE
:100378000831E5D1D4F88C311343C4F88C31DFE768
:10038800034C2C60D8E74FF0FF30DFE72000002057
:1003980024000020084B5A6942F460225A61DA6945
:1003A80042F40032DA619A6942F480429A615A69E9
:1003B800DA699B69704700BF001002404FF0904314
:1003C8001A6822F030021A601A6842F020021A6095
:1003D8001A6822F0C0021A601A6842F080021A6095
:1003E8001A6A22F470621A621A6A42F4E0621A62A5
:1003F8001A6A22F470421A621A6A42F4E0421A62D5
:100408005A6822F008025A60DA6822F0C002DA60FC
:100418005A6822F004025A60DA6822F03002DA6080
:1004280003F580631A6822F0C0021A601A6842F065
:1004380040021A605A6822F008025A60DA6822F00C
:10044800C002DA6008229A61704708B5FFF7A2FF78
:10045800FFF7B4FF08BD7047036823F0010303608A
:10046800002303604360836001EB5201B1FBF2F2A9
:10047800C260036843F00C030360036843F00103A0
:10048800036070474FF0000C08E0C36913F0800F59
:10049800FBD011F80C3003850CF1010C9445F4D312
:1004A800C36913F0400FFBD07047808CC0B270470F
:1004B800C069C0F340107047C36913F0800FFBD0C8
:1004C8000185C36913F0400FFBD0704708B572B6B9
:1004D800FFF7BBFF4FF4E132034B19680348FFF7FE
:1004E800BBFF62B6012008BD0000002000440040A8
:1004F80030B5A1B0FFF7EAFF98B380220021684623
:10050800FFF782FE2BE0013D032217491748FFF74A
:10051800B9FF0D2C15D01548FFF7CAFF0028FAD0EF
:100528001248FFF7C2FF04467F28ECD001460F4867
:10053800FFF7C2FF05F180036B4403F8804C0135D7
:10054800E7E70A4C0A212046FFF7B6FF2A46694624
:100558002046FFF797FF0A212046FFF7ADFF002549
:10056800D9E7012021B030BDF8050008004400405B
:10057800DFF834D0FFF76FFF0C480D490D4A002310
:1005880002E0D458C4500433C4188C42F9D30A4A40
:100598000A4C002301E013600432A242FBD3FFF7A8
:1005A80085FEFFF7A5FFFEE7FFFF00200000002003
:1005B800040000200806000804000020B401002000
:1005C800FEE70000024B13B10248FFF797BE7047E1
:1005D8000000000011030008F8B500BFF8BC08BC13
:1005E8009E467047F8B500BFF8BC08BC9E467047E9
:0405F80008200800CF
:0805FC00CD050008F101000823
:04060400C901000820
:0406080000127A0062
:040000050800057971
:00000001FF
