:020000040800F2
:10000000FFFF0020F505000845060008450600082A
:1000100045060008450600084506000800000000E7
:10002000000000000000000000000000450600087D
:1000300045060008000000004506000845060008C7
:100040004506000845060008450600084506000864
:100050004506000845060008450600084506000854
:100060004506000845060008450600084506000844
:100070004506000845060008450600084506000834
:100080004506000845060008450600084506000824
:100090004506000845060008450600084506000814
:1000A0004506000845060008450600084506000804
:1000B00045060008450600084506000845060008F4
:1000C00045060008450600084506000845060008E4
:1000D00045060008450600084506000845060008D4
:1000E00045060008450600084506000845060008C4
:1000F00045060008450600084506000845060008B4
:10010000000000000000000000000000450600089C
:100110004506000845060008450600084506000893
:100120004506000845060008450600084506000883
:100130004506000845060008000000000000000019
:1001400045060008450600084506000800000000B6
:10015000000000000000000000000000000000009F
:1001600000000000000000004506000845060008E9
:10017000450600080000000000000000000000002C
:08018000000000004506000824
:100188000348044B834202D0034B03B1184770471E
:100198000400002004000020000000000548064B71
:1001A8001B1AD90F01EBA301491002D0034B03B16D
:1001B80018477047040000200400002000000000D9
:1001C80010B5064C237843B9FFF7DAFF044B13B197
:1001D8000448AFF300800123237010BD0400002001
:1001E800000000005C06000808B5044B1BB1044978
:1001F8000448AFF30080BDE80840CFE700000000E6
:10020800080000205C060008830730B547D0541E5C
:10021800002A3ED0CAB2034601E0013C39D303F8B4
:10022800012B9D07F9D1032C2CD9CDB205EB05255F
:100238000F2C05EB054535D9A4F1100222F00F0C5F
:1002480003F1100EE6444FEA121C1A46C2E90055A3
:10025800C2E9025510327245F8D10CF1010214F0CE
:100268000C0F03EB021204F00F0C13D0ACF10403D3
:1002780023F003030433134442F8045B9342FBD195
:100288000CF003042CB1C9B21C4403F8011BA342AF
:10029800FBD130BD64461346002CF4D1F9E7034680
:1002A8001446C0E71A46A446E0E700BF70B50F4BF6
:1002B8000F4DAB42A3EB050607D0B610002455F846
:1002C800043B01349847A642F9D800F0C3F9094D18
:1002D800094B5E1BAB424FEAA60606D0002455F830
:1002E800043B01349847A642F9D870BD7806000847
:1002F80078060008780600088006000800230146F2
:100308001A46184600F014B838B5074D074C2C1B90
:10031800A41005D0013C55F8043D9847002CF9D1AC
:10032800BDE8384000F09CB9840600088006000843
:1003380070B4164D2C681CB365681F2D23DC38B9C2
:10034800AB1C0135656044F82310002070BC704771
:1003580004EB850C0228CCF88820D4F888614FF08B
:10036800010202FA05F246EA0206C4F88861CCF8EE
:100378000831E5D1D4F88C311343C4F88C31DFE768
:10038800034C2C60D8E74FF0FF30DFE72000002057
:1003980024000020084B5A6942F460225A61DA6945
:1003A80042F40032DA619A6942F480429A615A69E9
:1003B800DA699B69704700BF001002404FF0904314
:1003C8001A6822F030021A601A6842F020021A6095
:1003D8001A6822F0C0021A601A6842F080021A6095
:1003E8001A6A22F470621A621A6A42F4E0621A62A5
:1003F8001A6A22F470421A621A6A42F4E0421A62D5
:100408005A6822F00C025A60DA6822F0F002DA60C8
:100418001A6822F003021A601A6842F001021A6090
:100428005A6822F001025A60DA6822F00302DA60A0
:10043800012199611A6822F440221A601A6842F46C
:1004480000221A605A6A22F0F0025A625A6A42F08E
:1004580070025A621A6822F440121A601A6842F44A
:1004680000121A605A6A22F470625A625A6A42F496
:10047800E0625A625A6822F4C0625A60DA6822F46A
:100488007012DA601A6822F003021A601A680A43C6
:100498001A605A6822F001025A60DA6822F00302F0
:1004A800DA609961704708B5FFF774FFFFF786FFB8
:1004B80008BD7047036823F001030360002303604D
:1004C8004360836001EB5201B1FBF2F2C260036842
:1004D80043F00C030360036843F0010303607047B3
:1004E8004FF0000C08E0C36913F0800FFBD011F83F
:1004F8000C3003850CF1010C9445F4D3C36913F057
:10050800400FFBD07047808CC0B27047C069C0F301
:1005180040107047C36913F0800FFBD00185C36991
:1005280013F0400FFBD0704710B572B6FFF7BBFF52
:10053800074C4FF4E13221680648FFF7BBFF4FF440
:10054800165221680448FFF7B5FF62B6012010BDB6
:1005580000000020003801400044004030B5A1B040
:10056800FFF7E2FF002838D0802200216846FFF715
:100578004BFE30E0013D032219491A48FFF7B0FF4E
:100588000D2C15D01748FFF7C1FF0028FAD01548E1
:10059800FFF7B9FF04467F28ECD001461148FFF762
:1005A800B9FF05F180036B4403F8804C0135E7E798
:1005B8000C4C0A212046FFF7ADFF2A466946204623
:1005C800FFF78EFF0A212046FFF7A4FF2A46694657
:1005D8000548FFF785FF0025D4E7012021B030BD8D
:1005E800740600080038014000440040DFF834D0A9
:1005F800FFF75FFF0C480D490D4A002302E0D4586D
:10060800C4500433C4188C42F9D30A4A0A4C002354
:1006180001E013600432A242FBD3FFF747FEFFF765
:100628009DFFFEE7FFFF00200000002004000020DF
:100638008406000804000020B4010020FEE7000042
:10064800024B13B10248FFF759BE70470000000083
:1006580011030008F8B500BFF8BC08BC9E467047F7
:0C066800F8B500BFF8BC08BC9E46704707
:040674000820080052
:0806780049060008F101000829
:04068000C9010008A4
:0406840000127A00E6
:04000005080005F5F5
:00000001FF
