:020000040800F2
:10000000FFFF002059050008A9050008A905000800
:10001000A9050008A9050008A905000800000000BE
:10002000000000000000000000000000A90500081A
:10003000A905000800000000A9050008A90500089E
:10004000A9050008A9050008A9050008A9050008D8
:10005000A9050008A9050008A9050008A9050008C8
:10006000A9050008A9050008A9050008A9050008B8
:10007000A9050008A9050008A9050008A9050008A8
:10008000A9050008A9050008A9050008A905000898
:10009000A9050008A9050008A9050008A905000888
:1000A000A9050008A9050008A9050008A905000878
:1000B000A9050008A9050008A9050008A905000868
:1000C000A9050008A9050008A9050008A905000858
:1000D000A9050008A9050008A9050008A905000848
:1000E000A9050008A9050008A9050008A905000838
:1000F000A9050008A9050008A9050008A905000828
:10010000000000000000000000000000A905000839
:10011000A9050008A9050008A9050008A905000807
:10012000A9050008A9050008A9050008A9050008F7
:10013000A9050008A9050008000000000000000053
:10014000A9050008A9050008A9050008000000008D
:10015000000000000000000000000000000000009F
:100160000000000000000000A9050008A905000823
:10017000A9050008000000000000000000000000C9
:0801800000000000A9050008C1
:100188000348044B834202D0034B03B1184770471E
:10019800340400203404002000000000054806490B
:1001A8000B1AD90F01EBA301491002D0034B03B17D
:1001B8001847704734040020340400200000000071
:1001C80010B5064C237843B9FFF7DAFF044B13B197
:1001D8000448AFF300800123237010BD34040020CD
:1001E80000000000C005000808B5044B1BB1044915
:1001F8000448AFF30080BDE80840CFE700000000E6
:1002080038040020C0050008002301461A46184695
:1002180000F08CB838B5084B084D5B1B9C1007D014
:10022800043B1D44013C55F804399847002CF9D18A
:10023800BDE8384000F0C6B9EC050008E80500083C
:1002480070B50D4E0D4D761BB61006D0002455F82E
:10025800043B01349847A642F9D1094E094D761B53
:1002680000F0AAF9B61006D0002455F8043B013472
:100278009847A642F9D170BDE0050008E0050008DE
:10028800E8050008E0050008830730B548D0541E8B
:10029800002A3FD0CAB2034601E0013C3AD303F832
:1002A800012B9D07F9D1032C2DD9CDB245EA05259F
:1002B8000F2C45EA054536D9A4F1100222F00F0C9F
:1002C80003F1200EE6444FEA121C03F1100242E942
:1002D800045542E9025510327245F8D10CF1010279
:1002E80014F00C0F03EB021204F00F0C13D0ACF156
:1002F800040323F003030433134442F8045B9342DA
:10030800FBD10CF003042CB1CAB21C4403F8012B36
:100318009C42FBD130BD64461346002CF4D1F9E76A
:1003280003461446BFE71A46A446E0E770B4184CE3
:100338002568D5F848411CB365681F2D25DC38B9F8
:10034800AB1C0135656044F82310002070BC704771
:1003580004EB850C0228CCF88820D4F888614FF08B
:10036800010202FA05F246EA0206C4F88861CCF8EE
:100378000831E5D1D4F88C311343C4F88C31DFE768
:1003880005F5A674C5F84841D6E74FF0FF30DDE71C
:10039800D8050008054B5A6942F4C0125A61DA6957
:1003A80042F48012DA615A69DB6970470010024032
:1003B800194A136823F040731360136843F00073FD
:1003C8001360164B196821F030011960196841F063
:1003D80020011960516A21F470215162516A41F477
:1003E800A0215162196A21F470611962196A41F4F5
:1003F800A0611962516821F480515160D16821F0DF
:100408004071D1605A6822F004025A60DA6822F01A
:100418003002DA60704700BF00080048000C00484E
:1004280008B5FFF7B7FFFFF7C3FF08BD036823F060
:1004380001030360002303604360836001EB520102
:10044800B1FBF2F1C160036843F00C030360036879
:1004580043F00103036070474FF0000C08E0C369E4
:1004680013F0800FFBD011F80C3003850CF1010C50
:100478009445F4D3C36913F0400FFBD07047808CC8
:10048800C0B27047C069C0F340107047C36913F029
:10049800800FFBD089B20185C36913F0400FFBD0F0
:1004A8007047000008B572B6FFF7BAFF4FF4E132A3
:1004B800034B19680348FFF7B9FF62B6012008BD6E
:1004C800300400200050004030B5A1B0FFF7EAFF2B
:1004D800A0B3002100917C2201A8FFF7D5FE2BE0F4
:1004E800013D032217491848FFF7B6FF0D2C15D018
:1004F8001548FFF7C7FF0028FAD01348FFF7BFFFDA
:1005080004467F28ECD001460F48FFF7BFFF05F1EE
:1005180080036B4403F8804C0135E7E70A4C0A2155
:100528002046FFF7B3FF2A4669462046FFF794FFA7
:100538000A212046FFF7AAFF0025D9E7012021B0AC
:1005480030BD00BFDC0500080050004070470000C7
:10055800DFF834D0FFF7FAFF0C480D490D4A0023A5
:1005680002E0D458C4500433C4188C42F9D30A4A60
:100578000A4C002301E013600432A242FBD3FFF7C8
:100588005FFEFFF7A1FFFEE7FFFF0020000000204D
:1005980034040020EC050008340400205004002036
:1005A800FEE70000024B13B10248FFF72DBE70476B
:1005B800000000001D020008F8B500BFF8BC08BC28
:1005C8009E467047F8B500BFF8BC08BC9E46704709
:0805D8000800002008200800C3
:0805E000AD050008F10100085F
:0405E800C90100083D
:1005EC00080000200000000000000000F4020020C1
:1005FC005C030020C4030020000000000000000089
:10060C0000000000000000000000000000000000DE
:10061C0000000000000000000000000000000000CE
:10062C0000000000000000000000000000000000BE
:10063C0000000000000000000000000000000000AE
:10064C00000000000000000000000000000000009E
:10065C00000000000000000000000000000000008E
:10066C00000000000000000000000000000000007E
:10067C00000000000000000000000000000000006E
:10068C00000000000000000000000000000000005E
:10069C0001000000000000000E33CDAB34126DE6FB
:1006AC00ECDE05000B000000000000000000000064
:1006BC00000000000000000000000000000000002E
:1006CC00000000000000000000000000000000001E
:1006DC00000000000000000000000000000000000E
:1006EC0000000000000000000000000000000000FE
:040A1C0000127A004A
:040000050800055991
:00000001FF
