:020000040800F2
:10000000FFFF0020D5030008250400082504000890
:10001000250400082504000825040008000000004D
:10002000000000000000000000000000250400089F
:10003000250400080000000025040008250400082D
:1000400025040008250400082504000825040008EC
:1000500025040008250400082504000825040008DC
:1000600025040008250400082504000825040008CC
:1000700025040008250400082504000825040008BC
:1000800025040008250400082504000825040008AC
:10009000250400082504000825040008250400089C
:1000A000250400082504000825040008250400088C
:1000B000250400082504000825040008250400087C
:1000C000250400082504000825040008250400086C
:1000D000250400082504000825040008250400085C
:1000E000250400082504000825040008250400084C
:1000F000250400082504000825040008250400083C
:1001000000000000000000000000000025040008BE
:10011000250400082504000825040008250400081B
:10012000250400082504000825040008250400080B
:10013000250400082504000800000000000000005D
:10014000250400082504000825040008000000001C
:10015000000000000000000000000000000000009F
:10016000000000000000000025040008250400082D
:10017000250400080000000000000000000000004E
:08018000000000002504000846
:100188000348044B834202D0034B03B1184770471E
:100198003004002030040020000000000548064913
:1001A8000B1AD90F01EBA301491002D0034B03B17D
:1001B8001847704730040020300400200000000079
:1001C80010B5064C237843B9FFF7DAFF044B13B197
:1001D8000448AFF300800123237010BD30040020D1
:1001E800000000003C04000808B5044B1BB104499A
:1001F8000448AFF30080BDE80840CFE700000000E6
:10020800340400203C040008002301461A4618461E
:1002180000F03AB838B5084B084D5B1B9C1007D066
:10022800043B1D44013C55F804399847002CF9D18A
:10023800BDE8384000F004B9640400086004000810
:1002480070B50D4E0D4D761BB61006D0002455F82E
:10025800043B01349847A642F9D1094E094D761B53
:1002680000F0E8F8B61006D0002455F8043B013435
:100278009847A642F9D170BD5804000858040008F0
:10028800600400085804000870B4184C2568D5F8B4
:1002980048411CB365681F2D25DC38B9AB1C0135F6
:1002A800656044F82310002070BC704704EB850C8F
:1002B8000228CCF88820D4F888614FF0010202FAAD
:1002C80005F246EA0206C4F88861CCF80831E5D19F
:1002D800D4F88C311343C4F88C31DFE705F5A674E4
:1002E800C5F84841D6E74FF0FF30DDE75404000871
:1002F80008B572B600F05EF800B162B608BD08B580
:10030800FFF7F6FF10B100F059F8FCE7012008BD2F
:100318007047002070470000002301E00133DBB282
:10032800024A12789A42F9D8002070474C040020FB
:10033800114A1368526853EA02011BD030B584464B
:1003480093FAA3FEBEFA8EFE0120AEF12001CEF193
:10035800200400FA01F120FA04F4214300FA0EF512
:10036800054C23EA050322EA0102236062608CF847
:1003780000E030BD002070476004002010B582B056
:10038800002400E00134042C0FDC0DF10700FFF716
:10039800CFFF50B19DF807000328F3D8044B53F85A
:1003A8002030002BEED09847ECE702B010BD00BF1C
:1003B8005004002008B5FFF7ACFF08BD08B5FFF7EB
:1003C800ABFFFFF7DBFF30BF08BD0000DFF834D01C
:1003D800FFF79EFF0C480D490D4A002302E0D45850
:1003E800C4500433C4188C42F9D30A4A0A4C002377
:1003F80001E013600432A242FBD3FFF721FFFFF7AD
:100408007EFFFEE7FFFF00200000002030040020F0
:10041800640400083004002068040020FEE700009F
:10042800024B13B10248FFF7EFBE7047000000000F
:100438001D020008F8B500BFF8BC08BC9E4670470E
:0C044800F8B500BFF8BC08BC9E46704729
:04045400080000207C
:0804580029040008F10100086D
:04046000C9010008C6
:10046400080000200000000000000000F40200204A
:100474005C030020C4030020000000000000000012
:100484000000000000000000000000000000000068
:100494000000000000000000000000000000000058
:1004A4000000000000000000000000000000000048
:1004B4000000000000000000000000000000000038
:1004C4000000000000000000000000000000000028
:1004D4000000000000000000000000000000000018
:1004E4000000000000000000000000000000000008
:1004F40000000000000000000000000000000000F8
:1005040000000000000000000000000000000000E7
:1005140001000000000000000E33CDAB34126DE684
:10052400ECDE05000B0000000000000000000000ED
:1005340000000000000000000000000000000000B7
:1005440000000000000000000000000000000000A7
:100554000000000000000000000000000000000097
:100564000000000000000000000000000000000087
:04000005080003D517
:00000001FF
